{
  "contractName": "Dice",
  "abi": [
    {
      "inputs": [
        {
          "internalType": "uint256",
          "name": "number",
          "type": "uint256"
        }
      ],
      "name": "getRandomNumber",
      "outputs": [
        {
          "internalType": "uint256",
          "name": "",
          "type": "uint256"
        }
      ],
      "stateMutability": "view",
      "type": "function",
      "constant": true
    },
    {
      "inputs": [],
      "name": "Winner",
      "outputs": [
        {
          "internalType": "string",
          "name": "",
          "type": "string"
        },
        {
          "internalType": "uint256",
          "name": "",
          "type": "uint256"
        }
      ],
      "stateMutability": "view",
      "type": "function",
      "constant": true
    }
  ],
  "bytecode": "0x608060405234801561001057600080fd5b50610527806100206000396000f3fe608060405234801561001057600080fd5b50600436106100365760003560e01c8063b2b98ed21461003b578063b37217a41461005a575b600080fd5b61004361008a565b60405161005192919061028b565b60405180910390f35b610074600480360381019061006f91906102ec565b610182565b6040516100819190610319565b60405180910390f35b60606000806100996000610182565b905060006100a76001610182565b9050808211156100f457816040518060400160405280600d81526020017f506c6179657220312077696e73000000000000000000000000000000000000008152509093509350505061017e565b8082101561013f57806040518060400160405280600d81526020017f506c6179657220322077696e73000000000000000000000000000000000000008152509093509350505061017e565b816040518060400160405280600481526020017f4472617700000000000000000000000000000000000000000000000000000000815250909350935050505b9091565b600080600a42338560405160200161019c939291906103cf565b6040516020818303038152906040528051906020012060001c6101bf919061043b565b90506002816101ce919061049b565b905080915050919050565b600081519050919050565b600082825260208201905092915050565b60005b838110156102135780820151818401526020810190506101f8565b83811115610222576000848401525b50505050565b6000601f19601f8301169050919050565b6000610244826101d9565b61024e81856101e4565b935061025e8185602086016101f5565b61026781610228565b840191505092915050565b6000819050919050565b61028581610272565b82525050565b600060408201905081810360008301526102a58185610239565b90506102b4602083018461027c565b9392505050565b600080fd5b6102c981610272565b81146102d457600080fd5b50565b6000813590506102e6816102c0565b92915050565b600060208284031215610302576103016102bb565b5b6000610310848285016102d7565b91505092915050565b600060208201905061032e600083018461027c565b92915050565b6000819050919050565b61034f61034a82610272565b610334565b82525050565b600073ffffffffffffffffffffffffffffffffffffffff82169050919050565b600061038082610355565b9050919050565b60008160601b9050919050565b600061039f82610387565b9050919050565b60006103b182610394565b9050919050565b6103c96103c482610375565b6103a6565b82525050565b60006103db828661033e565b6020820191506103eb82856103b8565b6014820191506103fb828461033e565b602082019150819050949350505050565b7f4e487b7100000000000000000000000000000000000000000000000000000000600052601260045260246000fd5b600061044682610272565b915061045183610272565b9250826104615761046061040c565b5b828206905092915050565b7f4e487b7100000000000000000000000000000000000000000000000000000000600052601160045260246000fd5b60006104a682610272565b91506104b183610272565b9250827fffffffffffffffffffffffffffffffffffffffffffffffffffffffffffffffff038211156104e6576104e561046c565b5b82820190509291505056fea264697066735822122075903847642e08b6310e3fcdafc8b5f2b1903f6928ff2d82babb07995a97227364736f6c634300080b0033",
  "immutableReferences": {},
  "source": "// SPDX-License-Identifier: MIT\npragma solidity >=0.4.22 <0.9.0;\n\ncontract Dice {\n  function getRandomNumber(uint number) public view returns(uint) {\n    uint brosok = uint(keccak256(abi.encodePacked(block.timestamp, msg.sender, number))) % 10;\n    brosok = brosok + 2;\n    return (brosok);\n  }\n  function Winner() public view returns(string memory, uint) {\n    uint player1 = getRandomNumber(0);\n    uint player2 = getRandomNumber(1);\n    if (player1 > player2) \n      return(\"Player 1 wins\", player1);\n    else if (player1 < player2)\n      return(\"Player 2 wins\", player2);\n    else return(\"Draw\", player1);\n  }\n}\n",
  "sourcePath": "C:\\Users\\RT\\Desktop\\SIMPLEGAMES\\contracts\\Dice.sol",
  "compiler": {
    "name": "solc",
    "version": "0.8.11+commit.d7f03943.Emscripten.clang"
  },
  "schemaVersion": "3.4.4",
  "updatedAt": "2022-01-30T18:30:45.696Z",
  "networkType": "ethereum",
  "devdoc": {
    "kind": "dev",
    "methods": {},
    "version": 1
  },
  "userdoc": {
    "kind": "user",
    "methods": {},
    "version": 1
  }
}